{
  "_format": "hh-sol-artifact-1",
  "contractName": "airDrop",
  "sourceName": "contracts/AirDrop.sol",
  "abi": [
    {
      "inputs": [
        {
          "internalType": "address",
          "name": "_tokenAddress",
          "type": "address"
        }
      ],
      "stateMutability": "nonpayable",
      "type": "constructor"
    },
    {
      "inputs": [],
      "name": "airdropToken",
      "outputs": [
        {
          "internalType": "contract IERC20",
          "name": "",
          "type": "address"
        }
      ],
      "stateMutability": "view",
      "type": "function"
    },
    {
      "inputs": [
        {
          "internalType": "address",
          "name": "_owner",
          "type": "address"
        }
      ],
      "name": "changeOwner",
      "outputs": [],
      "stateMutability": "nonpayable",
      "type": "function"
    },
    {
      "inputs": [
        {
          "internalType": "address[]",
          "name": "_address",
          "type": "address[]"
        },
        {
          "internalType": "uint256",
          "name": "_amount",
          "type": "uint256"
        }
      ],
      "name": "doAirDrop",
      "outputs": [],
      "stateMutability": "nonpayable",
      "type": "function"
    },
    {
      "inputs": [],
      "name": "getOwner",
      "outputs": [
        {
          "internalType": "address",
          "name": "",
          "type": "address"
        }
      ],
      "stateMutability": "view",
      "type": "function"
    },
    {
      "inputs": [],
      "name": "owner",
      "outputs": [
        {
          "internalType": "address",
          "name": "",
          "type": "address"
        }
      ],
      "stateMutability": "view",
      "type": "function"
    }
  ],
  "bytecode": "0x608060405234801561001057600080fd5b50604051610b7f380380610b7f8339818101604052810190610032919061018b565b600073ffffffffffffffffffffffffffffffffffffffff168173ffffffffffffffffffffffffffffffffffffffff16036100a1576040517f08c379a000000000000000000000000000000000000000000000000000000000815260040161009890610215565b60405180910390fd5b336000806101000a81548173ffffffffffffffffffffffffffffffffffffffff021916908373ffffffffffffffffffffffffffffffffffffffff16021790555080600160006101000a81548173ffffffffffffffffffffffffffffffffffffffff021916908373ffffffffffffffffffffffffffffffffffffffff16021790555050610235565b600080fd5b600073ffffffffffffffffffffffffffffffffffffffff82169050919050565b60006101588261012d565b9050919050565b6101688161014d565b811461017357600080fd5b50565b6000815190506101858161015f565b92915050565b6000602082840312156101a1576101a0610128565b5b60006101af84828501610176565b91505092915050565b600082825260208201905092915050565b7f69742773206e6f742076616c696420746f6b656e204164647265737300000000600082015250565b60006101ff601c836101b8565b915061020a826101c9565b602082019050919050565b6000602082019050818103600083015261022e816101f2565b9050919050565b61093b806102446000396000f3fe608060405234801561001057600080fd5b50600436106100575760003560e01c80634d06068a1461005c578063893d20e81461007a5780638da5cb5b14610098578063a6f9dae1146100b6578063a8c6551f146100d2575b600080fd5b6100646100ee565b6040516100719190610493565b60405180910390f35b610082610114565b60405161008f91906104cf565b60405180910390f35b6100a0610141565b6040516100ad91906104cf565b60405180910390f35b6100d060048036038101906100cb919061052a565b610165565b005b6100ec60048036038101906100e791906106e6565b6102a5565b005b600160009054906101000a900473ffffffffffffffffffffffffffffffffffffffff1681565b60008060008054906101000a900473ffffffffffffffffffffffffffffffffffffffff1690508091505090565b60008054906101000a900473ffffffffffffffffffffffffffffffffffffffff1681565b60008054906101000a900473ffffffffffffffffffffffffffffffffffffffff1673ffffffffffffffffffffffffffffffffffffffff163373ffffffffffffffffffffffffffffffffffffffff16146101f3576040517f08c379a00000000000000000000000000000000000000000000000000000000081526004016101ea9061079f565b60405180910390fd5b600073ffffffffffffffffffffffffffffffffffffffff168173ffffffffffffffffffffffffffffffffffffffff1603610262576040517f08c379a00000000000000000000000000000000000000000000000000000000081526004016102599061080b565b60405180910390fd5b806000806101000a81548173ffffffffffffffffffffffffffffffffffffffff021916908373ffffffffffffffffffffffffffffffffffffffff16021790555050565b60008054906101000a900473ffffffffffffffffffffffffffffffffffffffff1673ffffffffffffffffffffffffffffffffffffffff163373ffffffffffffffffffffffffffffffffffffffff1614610333576040517f08c379a000000000000000000000000000000000000000000000000000000000815260040161032a9061079f565b60405180910390fd5b60005b825181101561040f5760008382815181106103545761035361082b565b5b60200260200101519050600160009054906101000a900473ffffffffffffffffffffffffffffffffffffffff1673ffffffffffffffffffffffffffffffffffffffff166323b872dd3383866040518463ffffffff1660e01b81526004016103bd93929190610869565b6020604051808303816000875af11580156103dc573d6000803e3d6000fd5b505050506040513d601f19601f8201168201806040525081019061040091906108d8565b50508080600101915050610336565b505050565b600073ffffffffffffffffffffffffffffffffffffffff82169050919050565b6000819050919050565b600061045961045461044f84610414565b610434565b610414565b9050919050565b600061046b8261043e565b9050919050565b600061047d82610460565b9050919050565b61048d81610472565b82525050565b60006020820190506104a86000830184610484565b92915050565b60006104b982610414565b9050919050565b6104c9816104ae565b82525050565b60006020820190506104e460008301846104c0565b92915050565b6000604051905090565b600080fd5b600080fd5b610507816104ae565b811461051257600080fd5b50565b600081359050610524816104fe565b92915050565b6000602082840312156105405761053f6104f4565b5b600061054e84828501610515565b91505092915050565b600080fd5b6000601f19601f8301169050919050565b7f4e487b7100000000000000000000000000000000000000000000000000000000600052604160045260246000fd5b6105a58261055c565b810181811067ffffffffffffffff821117156105c4576105c361056d565b5b80604052505050565b60006105d76104ea565b90506105e3828261059c565b919050565b600067ffffffffffffffff8211156106035761060261056d565b5b602082029050602081019050919050565b600080fd5b600061062c610627846105e8565b6105cd565b9050808382526020820190506020840283018581111561064f5761064e610614565b5b835b8181101561067857806106648882610515565b845260208401935050602081019050610651565b5050509392505050565b600082601f83011261069757610696610557565b5b81356106a7848260208601610619565b91505092915050565b6000819050919050565b6106c3816106b0565b81146106ce57600080fd5b50565b6000813590506106e0816106ba565b92915050565b600080604083850312156106fd576106fc6104f4565b5b600083013567ffffffffffffffff81111561071b5761071a6104f9565b5b61072785828601610682565b9250506020610738858286016106d1565b9150509250929050565b600082825260208201905092915050565b7f6f6e6c79206f776e65722063616e2061697264726f7000000000000000000000600082015250565b6000610789601683610742565b915061079482610753565b602082019050919050565b600060208201905081810360008301526107b88161077c565b9050919050565b7f69742773206e6f742076616c6964204164647265737300000000000000000000600082015250565b60006107f5601683610742565b9150610800826107bf565b602082019050919050565b60006020820190508181036000830152610824816107e8565b9050919050565b7f4e487b7100000000000000000000000000000000000000000000000000000000600052603260045260246000fd5b610863816106b0565b82525050565b600060608201905061087e60008301866104c0565b61088b60208301856104c0565b610898604083018461085a565b949350505050565b60008115159050919050565b6108b5816108a0565b81146108c057600080fd5b50565b6000815190506108d2816108ac565b92915050565b6000602082840312156108ee576108ed6104f4565b5b60006108fc848285016108c3565b9150509291505056fea264697066735822122034491792015abc33ae081e61229bd54fc5a63b44008e407b41618a32a7f3592c64736f6c63430008170033",
  "linkReferences": {},
  "deployedLinkReferences": {}
}