{
  "_format": "hh-sol-artifact-1",
  "contractName": "airDrop",
  "sourceName": "contracts/AirDrop.sol",
  "abi": [
    {
      "inputs": [
        {
          "internalType": "address",
          "name": "_tokenAddress",
          "type": "address"
        }
      ],
      "stateMutability": "nonpayable",
      "type": "constructor"
    },
    {
      "inputs": [],
      "name": "airdropToken",
      "outputs": [
        {
          "internalType": "contract IERC20",
          "name": "",
          "type": "address"
        }
      ],
      "stateMutability": "view",
      "type": "function"
    },
    {
      "inputs": [
        {
          "internalType": "address[]",
          "name": "_address",
          "type": "address[]"
        },
        {
          "internalType": "uint256",
          "name": "_amount",
          "type": "uint256"
        }
      ],
      "name": "doAirDrop",
      "outputs": [],
      "stateMutability": "nonpayable",
      "type": "function"
    },
    {
      "inputs": [],
      "name": "owner",
      "outputs": [
        {
          "internalType": "address",
          "name": "",
          "type": "address"
        }
      ],
      "stateMutability": "view",
      "type": "function"
    }
  ],
  "bytecode": "0x608060405234801561001057600080fd5b506040516109293803806109298339818101604052810190610032919061018b565b600073ffffffffffffffffffffffffffffffffffffffff168173ffffffffffffffffffffffffffffffffffffffff16036100a1576040517f08c379a000000000000000000000000000000000000000000000000000000000815260040161009890610215565b60405180910390fd5b336000806101000a81548173ffffffffffffffffffffffffffffffffffffffff021916908373ffffffffffffffffffffffffffffffffffffffff16021790555080600160006101000a81548173ffffffffffffffffffffffffffffffffffffffff021916908373ffffffffffffffffffffffffffffffffffffffff16021790555050610235565b600080fd5b600073ffffffffffffffffffffffffffffffffffffffff82169050919050565b60006101588261012d565b9050919050565b6101688161014d565b811461017357600080fd5b50565b6000815190506101858161015f565b92915050565b6000602082840312156101a1576101a0610128565b5b60006101af84828501610176565b91505092915050565b600082825260208201905092915050565b7f69742773206e6f742076616c696420746f6b656e204164647265737300000000600082015250565b60006101ff601c836101b8565b915061020a826101c9565b602082019050919050565b6000602082019050818103600083015261022e816101f2565b9050919050565b6106e5806102446000396000f3fe608060405234801561001057600080fd5b50600436106100415760003560e01c80634d06068a146100465780638da5cb5b14610064578063a8c6551f14610082575b600080fd5b61004e61009e565b60405161005b91906102d6565b60405180910390f35b61006c6100c4565b6040516100799190610312565b60405180910390f35b61009c600480360381019061009791906104fc565b6100e8565b005b600160009054906101000a900473ffffffffffffffffffffffffffffffffffffffff1681565b60008054906101000a900473ffffffffffffffffffffffffffffffffffffffff1681565b60008054906101000a900473ffffffffffffffffffffffffffffffffffffffff1673ffffffffffffffffffffffffffffffffffffffff163373ffffffffffffffffffffffffffffffffffffffff1614610176576040517f08c379a000000000000000000000000000000000000000000000000000000000815260040161016d906105b5565b60405180910390fd5b60005b8251811015610252576000838281518110610197576101966105d5565b5b60200260200101519050600160009054906101000a900473ffffffffffffffffffffffffffffffffffffffff1673ffffffffffffffffffffffffffffffffffffffff166323b872dd3383866040518463ffffffff1660e01b815260040161020093929190610613565b6020604051808303816000875af115801561021f573d6000803e3d6000fd5b505050506040513d601f19601f820116820180604052508101906102439190610682565b50508080600101915050610179565b505050565b600073ffffffffffffffffffffffffffffffffffffffff82169050919050565b6000819050919050565b600061029c61029761029284610257565b610277565b610257565b9050919050565b60006102ae82610281565b9050919050565b60006102c0826102a3565b9050919050565b6102d0816102b5565b82525050565b60006020820190506102eb60008301846102c7565b92915050565b60006102fc82610257565b9050919050565b61030c816102f1565b82525050565b60006020820190506103276000830184610303565b92915050565b6000604051905090565b600080fd5b600080fd5b600080fd5b6000601f19601f8301169050919050565b7f4e487b7100000000000000000000000000000000000000000000000000000000600052604160045260246000fd5b61038f82610346565b810181811067ffffffffffffffff821117156103ae576103ad610357565b5b80604052505050565b60006103c161032d565b90506103cd8282610386565b919050565b600067ffffffffffffffff8211156103ed576103ec610357565b5b602082029050602081019050919050565b600080fd5b61040c816102f1565b811461041757600080fd5b50565b60008135905061042981610403565b92915050565b600061044261043d846103d2565b6103b7565b90508083825260208201905060208402830185811115610465576104646103fe565b5b835b8181101561048e578061047a888261041a565b845260208401935050602081019050610467565b5050509392505050565b600082601f8301126104ad576104ac610341565b5b81356104bd84826020860161042f565b91505092915050565b6000819050919050565b6104d9816104c6565b81146104e457600080fd5b50565b6000813590506104f6816104d0565b92915050565b6000806040838503121561051357610512610337565b5b600083013567ffffffffffffffff8111156105315761053061033c565b5b61053d85828601610498565b925050602061054e858286016104e7565b9150509250929050565b600082825260208201905092915050565b7f6f6e6c79206f776e65722063616e2061697264726f7000000000000000000000600082015250565b600061059f601683610558565b91506105aa82610569565b602082019050919050565b600060208201905081810360008301526105ce81610592565b9050919050565b7f4e487b7100000000000000000000000000000000000000000000000000000000600052603260045260246000fd5b61060d816104c6565b82525050565b60006060820190506106286000830186610303565b6106356020830185610303565b6106426040830184610604565b949350505050565b60008115159050919050565b61065f8161064a565b811461066a57600080fd5b50565b60008151905061067c81610656565b92915050565b60006020828403121561069857610697610337565b5b60006106a68482850161066d565b9150509291505056fea26469706673582212207314eaddcc01de578c5617368f1258466268c49e62dd400292c7dcd60e0d539e64736f6c63430008170033",
  "linkReferences": {},
  "deployedLinkReferences": {}
}