{
  "_format": "hh-sol-artifact-1",
  "contractName": "airDrop",
  "sourceName": "contracts/AirDrop.sol",
  "abi": [
    {
      "inputs": [
        {
          "internalType": "address",
          "name": "_tokenAddress",
          "type": "address"
        }
      ],
      "stateMutability": "nonpayable",
      "type": "constructor"
    },
    {
      "inputs": [],
      "name": "airdropToken",
      "outputs": [
        {
          "internalType": "contract IERC20",
          "name": "",
          "type": "address"
        }
      ],
      "stateMutability": "view",
      "type": "function"
    },
    {
      "inputs": [
        {
          "internalType": "address",
          "name": "_owner",
          "type": "address"
        }
      ],
      "name": "changeOwner",
      "outputs": [],
      "stateMutability": "nonpayable",
      "type": "function"
    },
    {
      "inputs": [
        {
          "internalType": "address[]",
          "name": "_address",
          "type": "address[]"
        },
        {
          "internalType": "uint256",
          "name": "_amount",
          "type": "uint256"
        }
      ],
      "name": "doAirDrop",
      "outputs": [],
      "stateMutability": "nonpayable",
      "type": "function"
    },
    {
      "inputs": [],
      "name": "getOwner",
      "outputs": [
        {
          "internalType": "address",
          "name": "",
          "type": "address"
        }
      ],
      "stateMutability": "view",
      "type": "function"
    }
  ],
  "bytecode": "0x608060405234801561001057600080fd5b50604051610b32380380610b328339818101604052810190610032919061018b565b600073ffffffffffffffffffffffffffffffffffffffff168173ffffffffffffffffffffffffffffffffffffffff16036100a1576040517f08c379a000000000000000000000000000000000000000000000000000000000815260040161009890610215565b60405180910390fd5b336000806101000a81548173ffffffffffffffffffffffffffffffffffffffff021916908373ffffffffffffffffffffffffffffffffffffffff16021790555080600160006101000a81548173ffffffffffffffffffffffffffffffffffffffff021916908373ffffffffffffffffffffffffffffffffffffffff16021790555050610235565b600080fd5b600073ffffffffffffffffffffffffffffffffffffffff82169050919050565b60006101588261012d565b9050919050565b6101688161014d565b811461017357600080fd5b50565b6000815190506101858161015f565b92915050565b6000602082840312156101a1576101a0610128565b5b60006101af84828501610176565b91505092915050565b600082825260208201905092915050565b7f69742773206e6f742076616c696420746f6b656e204164647265737300000000600082015250565b60006101ff601c836101b8565b915061020a826101c9565b602082019050919050565b6000602082019050818103600083015261022e816101f2565b9050919050565b6108ee806102446000396000f3fe608060405234801561001057600080fd5b506004361061004c5760003560e01c80634d06068a14610051578063893d20e81461006f578063a6f9dae11461008d578063a8c6551f146100a9575b600080fd5b6100596100c5565b6040516100669190610446565b60405180910390f35b6100776100eb565b6040516100849190610482565b60405180910390f35b6100a760048036038101906100a291906104dd565b610118565b005b6100c360048036038101906100be9190610699565b610258565b005b600160009054906101000a900473ffffffffffffffffffffffffffffffffffffffff1681565b60008060008054906101000a900473ffffffffffffffffffffffffffffffffffffffff1690508091505090565b60008054906101000a900473ffffffffffffffffffffffffffffffffffffffff1673ffffffffffffffffffffffffffffffffffffffff163373ffffffffffffffffffffffffffffffffffffffff16146101a6576040517f08c379a000000000000000000000000000000000000000000000000000000000815260040161019d90610752565b60405180910390fd5b600073ffffffffffffffffffffffffffffffffffffffff168173ffffffffffffffffffffffffffffffffffffffff1603610215576040517f08c379a000000000000000000000000000000000000000000000000000000000815260040161020c906107be565b60405180910390fd5b806000806101000a81548173ffffffffffffffffffffffffffffffffffffffff021916908373ffffffffffffffffffffffffffffffffffffffff16021790555050565b60008054906101000a900473ffffffffffffffffffffffffffffffffffffffff1673ffffffffffffffffffffffffffffffffffffffff163373ffffffffffffffffffffffffffffffffffffffff16146102e6576040517f08c379a00000000000000000000000000000000000000000000000000000000081526004016102dd90610752565b60405180910390fd5b60005b82518110156103c2576000838281518110610307576103066107de565b5b60200260200101519050600160009054906101000a900473ffffffffffffffffffffffffffffffffffffffff1673ffffffffffffffffffffffffffffffffffffffff166323b872dd3383866040518463ffffffff1660e01b81526004016103709392919061081c565b6020604051808303816000875af115801561038f573d6000803e3d6000fd5b505050506040513d601f19601f820116820180604052508101906103b3919061088b565b505080806001019150506102e9565b505050565b600073ffffffffffffffffffffffffffffffffffffffff82169050919050565b6000819050919050565b600061040c610407610402846103c7565b6103e7565b6103c7565b9050919050565b600061041e826103f1565b9050919050565b600061043082610413565b9050919050565b61044081610425565b82525050565b600060208201905061045b6000830184610437565b92915050565b600061046c826103c7565b9050919050565b61047c81610461565b82525050565b60006020820190506104976000830184610473565b92915050565b6000604051905090565b600080fd5b600080fd5b6104ba81610461565b81146104c557600080fd5b50565b6000813590506104d7816104b1565b92915050565b6000602082840312156104f3576104f26104a7565b5b6000610501848285016104c8565b91505092915050565b600080fd5b6000601f19601f8301169050919050565b7f4e487b7100000000000000000000000000000000000000000000000000000000600052604160045260246000fd5b6105588261050f565b810181811067ffffffffffffffff8211171561057757610576610520565b5b80604052505050565b600061058a61049d565b9050610596828261054f565b919050565b600067ffffffffffffffff8211156105b6576105b5610520565b5b602082029050602081019050919050565b600080fd5b60006105df6105da8461059b565b610580565b90508083825260208201905060208402830185811115610602576106016105c7565b5b835b8181101561062b578061061788826104c8565b845260208401935050602081019050610604565b5050509392505050565b600082601f83011261064a5761064961050a565b5b813561065a8482602086016105cc565b91505092915050565b6000819050919050565b61067681610663565b811461068157600080fd5b50565b6000813590506106938161066d565b92915050565b600080604083850312156106b0576106af6104a7565b5b600083013567ffffffffffffffff8111156106ce576106cd6104ac565b5b6106da85828601610635565b92505060206106eb85828601610684565b9150509250929050565b600082825260208201905092915050565b7f6f6e6c79206f776e65722063616e2061697264726f7000000000000000000000600082015250565b600061073c6016836106f5565b915061074782610706565b602082019050919050565b6000602082019050818103600083015261076b8161072f565b9050919050565b7f69742773206e6f742076616c6964204164647265737300000000000000000000600082015250565b60006107a86016836106f5565b91506107b382610772565b602082019050919050565b600060208201905081810360008301526107d78161079b565b9050919050565b7f4e487b7100000000000000000000000000000000000000000000000000000000600052603260045260246000fd5b61081681610663565b82525050565b60006060820190506108316000830186610473565b61083e6020830185610473565b61084b604083018461080d565b949350505050565b60008115159050919050565b61086881610853565b811461087357600080fd5b50565b6000815190506108858161085f565b92915050565b6000602082840312156108a1576108a06104a7565b5b60006108af84828501610876565b9150509291505056fea26469706673582212203d2626062dfa9cfd6d195e89e192492679146009b54846087593cdd502c0810d64736f6c63430008170033",
  "linkReferences": {},
  "deployedLinkReferences": {}
}