{
  "_format": "hh-sol-artifact-1",
  "contractName": "Staking",
  "sourceName": "contracts/Staking.sol",
  "abi": [
    {
      "inputs": [
        {
          "internalType": "address",
          "name": "_tokenAddress",
          "type": "address"
        }
      ],
      "stateMutability": "nonpayable",
      "type": "constructor"
    },
    {
      "anonymous": false,
      "inputs": [
        {
          "indexed": true,
          "internalType": "address",
          "name": "user",
          "type": "address"
        },
        {
          "indexed": true,
          "internalType": "uint256",
          "name": "id",
          "type": "uint256"
        },
        {
          "indexed": true,
          "internalType": "uint256",
          "name": "stakedAmount",
          "type": "uint256"
        },
        {
          "indexed": false,
          "internalType": "uint256",
          "name": "stakingPeriod",
          "type": "uint256"
        },
        {
          "indexed": false,
          "internalType": "uint256",
          "name": "startTime",
          "type": "uint256"
        }
      ],
      "name": "Stake",
      "type": "event"
    },
    {
      "anonymous": false,
      "inputs": [
        {
          "indexed": true,
          "internalType": "address",
          "name": "user",
          "type": "address"
        },
        {
          "indexed": true,
          "internalType": "uint256",
          "name": "id",
          "type": "uint256"
        },
        {
          "indexed": false,
          "internalType": "uint256",
          "name": "stakedAmount",
          "type": "uint256"
        },
        {
          "indexed": true,
          "internalType": "uint256",
          "name": "withdrawAmount",
          "type": "uint256"
        },
        {
          "indexed": false,
          "internalType": "uint256",
          "name": "stakingPeriod",
          "type": "uint256"
        },
        {
          "indexed": false,
          "internalType": "uint256",
          "name": "startTime",
          "type": "uint256"
        },
        {
          "indexed": false,
          "internalType": "uint256",
          "name": "endTime",
          "type": "uint256"
        }
      ],
      "name": "Withdraw",
      "type": "event"
    },
    {
      "inputs": [],
      "name": "getUserStakingInfo",
      "outputs": [
        {
          "components": [
            {
              "internalType": "uint256",
              "name": "id",
              "type": "uint256"
            },
            {
              "internalType": "uint256",
              "name": "stakedAmount",
              "type": "uint256"
            },
            {
              "internalType": "uint256",
              "name": "stakingPeriod",
              "type": "uint256"
            },
            {
              "internalType": "uint256",
              "name": "startTime",
              "type": "uint256"
            },
            {
              "internalType": "uint256",
              "name": "rewardRate",
              "type": "uint256"
            }
          ],
          "internalType": "struct Staking.StakingInfo[]",
          "name": "",
          "type": "tuple[]"
        }
      ],
      "stateMutability": "view",
      "type": "function"
    },
    {
      "inputs": [
        {
          "internalType": "address[]",
          "name": "_address",
          "type": "address[]"
        },
        {
          "internalType": "uint256",
          "name": "amount",
          "type": "uint256"
        },
        {
          "internalType": "uint256",
          "name": "stakingPeriod",
          "type": "uint256"
        },
        {
          "internalType": "uint256",
          "name": "reward",
          "type": "uint256"
        }
      ],
      "name": "stake",
      "outputs": [],
      "stateMutability": "nonpayable",
      "type": "function"
    },
    {
      "inputs": [
        {
          "internalType": "uint256",
          "name": "id",
          "type": "uint256"
        },
        {
          "internalType": "uint256",
          "name": "withdrawAmount",
          "type": "uint256"
        }
      ],
      "name": "withdraw",
      "outputs": [],
      "stateMutability": "nonpayable",
      "type": "function"
    },
    {
      "inputs": [
        {
          "internalType": "uint256",
          "name": "id",
          "type": "uint256"
        }
      ],
      "name": "withdrawAll",
      "outputs": [],
      "stateMutability": "nonpayable",
      "type": "function"
    },
    {
      "inputs": [
        {
          "internalType": "uint256",
          "name": "id",
          "type": "uint256"
        }
      ],
      "name": "withdrawableAmount",
      "outputs": [
        {
          "internalType": "uint256",
          "name": "",
          "type": "uint256"
        }
      ],
      "stateMutability": "view",
      "type": "function"
    }
  ],
  "bytecode": "0x60806040523480156200001157600080fd5b5060405162001de738038062001de783398181016040528101906200003791906200019b565b600073ffffffffffffffffffffffffffffffffffffffff168173ffffffffffffffffffffffffffffffffffffffff1603620000a9576040517f08c379a0000000000000000000000000000000000000000000000000000000008152600401620000a0906200022e565b60405180910390fd5b33600160006101000a81548173ffffffffffffffffffffffffffffffffffffffff021916908373ffffffffffffffffffffffffffffffffffffffff160217905550806000806101000a81548173ffffffffffffffffffffffffffffffffffffffff021916908373ffffffffffffffffffffffffffffffffffffffff1602179055505062000250565b600080fd5b600073ffffffffffffffffffffffffffffffffffffffff82169050919050565b6000620001638262000136565b9050919050565b620001758162000156565b81146200018157600080fd5b50565b60008151905062000195816200016a565b92915050565b600060208284031215620001b457620001b362000131565b5b6000620001c48482850162000184565b91505092915050565b600082825260208201905092915050565b7f69742773206e6f742076616c696420746f6b656e204164647265737300000000600082015250565b600062000216601c83620001cd565b91506200022382620001de565b602082019050919050565b60006020820190508181036000830152620002498162000207565b9050919050565b611b8780620002606000396000f3fe608060405234801561001057600080fd5b50600436106100575760003560e01c8063441a3e701461005c5780634903371714610078578063958e2d3114610096578063a3b1af97146100b2578063d0cee66a146100ce575b600080fd5b6100766004803603810190610071919061118f565b6100fe565b005b610080610323565b60405161008d91906112f5565b60405180910390f35b6100b060048036038101906100ab9190611317565b6103f1565b005b6100cc60048036038101906100c791906114fb565b6105cf565b005b6100e860048036038101906100e39190611317565b61072f565b6040516100f5919061158d565b60405180910390f35b33826000600360008473ffffffffffffffffffffffffffffffffffffffff1673ffffffffffffffffffffffffffffffffffffffff1681526020019081526020016000208281548110610153576101526115a8565b5b906000526020600020906005020160010154116101a5576040517f08c379a000000000000000000000000000000000000000000000000000000000815260040161019c90611634565b60405180910390fd5b82600081116101e9576040517f08c379a00000000000000000000000000000000000000000000000000000000081526004016101e0906116a0565b60405180910390fd5b33856000600360008473ffffffffffffffffffffffffffffffffffffffff1673ffffffffffffffffffffffffffffffffffffffff168152602001908152602001600020828154811061023e5761023d6115a8565b5b90600052602060002090600502016003015490506000600360008573ffffffffffffffffffffffffffffffffffffffff1673ffffffffffffffffffffffffffffffffffffffff16815260200190815260200160002083815481106102a5576102a46115a8565b5b9060005260206000209060050201600201549050600082426102c791906116ef565b90508181101561030c576040517f08c379a000000000000000000000000000000000000000000000000000000000815260040161030390611795565b60405180910390fd5b610317898b33610913565b50505050505050505050565b6060600360003373ffffffffffffffffffffffffffffffffffffffff1673ffffffffffffffffffffffffffffffffffffffff168152602001908152602001600020805480602002602001604051908101604052809291908181526020016000905b828210156103e857838290600052602060002090600502016040518060a00160405290816000820154815260200160018201548152602001600282015481526020016003820154815260200160048201548152505081526020019060010190610384565b50505050905090565b33816000600360008473ffffffffffffffffffffffffffffffffffffffff1673ffffffffffffffffffffffffffffffffffffffff1681526020019081526020016000208281548110610446576104456115a8565b5b90600052602060002090600502016001015411610498576040517f08c379a000000000000000000000000000000000000000000000000000000000815260040161048f90611634565b60405180910390fd5b33836000600360008473ffffffffffffffffffffffffffffffffffffffff1673ffffffffffffffffffffffffffffffffffffffff16815260200190815260200160002082815481106104ed576104ec6115a8565b5b90600052602060002090600502016003015490506000600360008573ffffffffffffffffffffffffffffffffffffffff1673ffffffffffffffffffffffffffffffffffffffff1681526020019081526020016000208381548110610554576105536115a8565b5b90600052602060002090600502016002015490506000824261057691906116ef565b9050818110156105bb576040517f08c379a00000000000000000000000000000000000000000000000000000000081526004016105b290611795565b60405180910390fd5b6105c58833610c22565b5050505050505050565b8260008111610613576040517f08c379a000000000000000000000000000000000000000000000000000000000815260040161060a906116a0565b60405180910390fd5b8260008111610657576040517f08c379a000000000000000000000000000000000000000000000000000000000815260040161064e90611827565b60405180910390fd5b600160009054906101000a900473ffffffffffffffffffffffffffffffffffffffff1673ffffffffffffffffffffffffffffffffffffffff163373ffffffffffffffffffffffffffffffffffffffff16146106e7576040517f08c379a00000000000000000000000000000000000000000000000000000000081526004016106de90611893565b60405180910390fd5b60005b865181101561072657610719878281518110610709576107086115a8565b5b6020026020010151878787610e24565b80806001019150506106ea565b50505050505050565b600033826000600360008473ffffffffffffffffffffffffffffffffffffffff1673ffffffffffffffffffffffffffffffffffffffff1681526020019081526020016000208281548110610786576107856115a8565b5b906000526020600020906005020160010154116107d8576040517f08c379a00000000000000000000000000000000000000000000000000000000081526004016107cf90611634565b60405180910390fd5b33846000600360008473ffffffffffffffffffffffffffffffffffffffff1673ffffffffffffffffffffffffffffffffffffffff168152602001908152602001600020828154811061082d5761082c6115a8565b5b90600052602060002090600502016003015490506000600360008573ffffffffffffffffffffffffffffffffffffffff1673ffffffffffffffffffffffffffffffffffffffff1681526020019081526020016000208381548110610894576108936115a8565b5b9060005260206000209060050201600201549050600082426108b691906116ef565b9050818110156108fb576040517f08c379a00000000000000000000000000000000000000000000000000000000081526004016108f290611795565b60405180910390fd5b6109058933611098565b975050505050505050919050565b6000600360008373ffffffffffffffffffffffffffffffffffffffff1673ffffffffffffffffffffffffffffffffffffffff1681526020019081526020016000208381548110610966576109656115a8565b5b9060005260206000209060050201905060006109828484611098565b9050808511156109c7576040517f08c379a00000000000000000000000000000000000000000000000000000000081526004016109be90611925565b60405180910390fd5b60008260010154905060008360020154905060008460030154905087846109ee91906116ef565b600360008873ffffffffffffffffffffffffffffffffffffffff1673ffffffffffffffffffffffffffffffffffffffff1681526020019081526020016000208881548110610a3f57610a3e6115a8565b5b90600052602060002090600502016001018190555042600360008873ffffffffffffffffffffffffffffffffffffffff1673ffffffffffffffffffffffffffffffffffffffff1681526020019081526020016000208881548110610aa657610aa56115a8565b5b9060005260206000209060050201600301819055506000600360008873ffffffffffffffffffffffffffffffffffffffff1673ffffffffffffffffffffffffffffffffffffffff1681526020019081526020016000208881548110610b0e57610b0d6115a8565b5b90600052602060002090600502016002018190555060008054906101000a900473ffffffffffffffffffffffffffffffffffffffff1673ffffffffffffffffffffffffffffffffffffffff1663a9059cbb878a6040518363ffffffff1660e01b8152600401610b7e929190611954565b6020604051808303816000875af1158015610b9d573d6000803e3d6000fd5b505050506040513d601f19601f82011682018060405250810190610bc191906119b5565b5087878773ffffffffffffffffffffffffffffffffffffffff167f194c8d0132d20112211dfa71bb87a92766fde4f4318e08efd2cc4a6e188e509d86868642604051610c1094939291906119e2565b60405180910390a45050505050505050565b6000600360008373ffffffffffffffffffffffffffffffffffffffff1673ffffffffffffffffffffffffffffffffffffffff1681526020019081526020016000208381548110610c7557610c746115a8565b5b906000526020600020906005020190506000610c918484611098565b9050600360008473ffffffffffffffffffffffffffffffffffffffff1673ffffffffffffffffffffffffffffffffffffffff1681526020019081526020016000208481548110610ce457610ce36115a8565b5b90600052602060002090600502016000808201600090556001820160009055600282016000905560038201600090556004820160009055505060008054906101000a900473ffffffffffffffffffffffffffffffffffffffff1673ffffffffffffffffffffffffffffffffffffffff1663a9059cbb84836040518363ffffffff1660e01b8152600401610d78929190611954565b6020604051808303816000875af1158015610d97573d6000803e3d6000fd5b505050506040513d601f19601f82011682018060405250810190610dbb91906119b5565b5080848473ffffffffffffffffffffffffffffffffffffffff167f194c8d0132d20112211dfa71bb87a92766fde4f4318e08efd2cc4a6e188e509d85600101548660020154876003015442604051610e1694939291906119e2565b60405180910390a450505050565b6000600260009054906101000a90046fffffffffffffffffffffffffffffffff166fffffffffffffffffffffffffffffffff16905060008054906101000a900473ffffffffffffffffffffffffffffffffffffffff1673ffffffffffffffffffffffffffffffffffffffff166323b872dd600160009054906101000a900473ffffffffffffffffffffffffffffffffffffffff1630876040518463ffffffff1660e01b8152600401610ed893929190611a27565b6020604051808303816000875af1158015610ef7573d6000803e3d6000fd5b505050506040513d601f19601f82011682018060405250810190610f1b91906119b5565b50600360008673ffffffffffffffffffffffffffffffffffffffff1673ffffffffffffffffffffffffffffffffffffffff1681526020019081526020016000206040518060a00160405280838152602001868152602001858152602001428152602001848152509080600181540180825580915050600190039060005260206000209060050201600090919091909150600082015181600001556020820151816001015560408201518160020155606082015181600301556080820151816004015550506002600081819054906101000a90046fffffffffffffffffffffffffffffffff1661100990611a7a565b91906101000a8154816fffffffffffffffffffffffffffffffff02191690836fffffffffffffffffffffffffffffffff16021790555083818673ffffffffffffffffffffffffffffffffffffffff167f2720efa4b2dd4f3f8a347da3cbd290a522e9432da9072c5b8e6300496fdde2824287604051611089929190611ab2565b60405180910390a45050505050565b600080600360008473ffffffffffffffffffffffffffffffffffffffff1673ffffffffffffffffffffffffffffffffffffffff16815260200190815260200160002084815481106110ec576110eb6115a8565b5b90600052602060002090600502019050600081600301544261110e91906116ef565b9050600082600401549050600082826111279190611adb565b84600101546111369190611b1d565b90508094505050505092915050565b6000604051905090565b600080fd5b600080fd5b6000819050919050565b61116c81611159565b811461117757600080fd5b50565b60008135905061118981611163565b92915050565b600080604083850312156111a6576111a561114f565b5b60006111b48582860161117a565b92505060206111c58582860161117a565b9150509250929050565b600081519050919050565b600082825260208201905092915050565b6000819050602082019050919050565b61120481611159565b82525050565b60a08201600082015161122060008501826111fb565b50602082015161123360208501826111fb565b50604082015161124660408501826111fb565b50606082015161125960608501826111fb565b50608082015161126c60808501826111fb565b50505050565b600061127e838361120a565b60a08301905092915050565b6000602082019050919050565b60006112a2826111cf565b6112ac81856111da565b93506112b7836111eb565b8060005b838110156112e85781516112cf8882611272565b97506112da8361128a565b9250506001810190506112bb565b5085935050505092915050565b6000602082019050818103600083015261130f8184611297565b905092915050565b60006020828403121561132d5761132c61114f565b5b600061133b8482850161117a565b91505092915050565b600080fd5b6000601f19601f8301169050919050565b7f4e487b7100000000000000000000000000000000000000000000000000000000600052604160045260246000fd5b61139282611349565b810181811067ffffffffffffffff821117156113b1576113b061135a565b5b80604052505050565b60006113c4611145565b90506113d08282611389565b919050565b600067ffffffffffffffff8211156113f0576113ef61135a565b5b602082029050602081019050919050565b600080fd5b600073ffffffffffffffffffffffffffffffffffffffff82169050919050565b600061143182611406565b9050919050565b61144181611426565b811461144c57600080fd5b50565b60008135905061145e81611438565b92915050565b6000611477611472846113d5565b6113ba565b9050808382526020820190506020840283018581111561149a57611499611401565b5b835b818110156114c357806114af888261144f565b84526020840193505060208101905061149c565b5050509392505050565b600082601f8301126114e2576114e1611344565b5b81356114f2848260208601611464565b91505092915050565b600080600080608085870312156115155761151461114f565b5b600085013567ffffffffffffffff81111561153357611532611154565b5b61153f878288016114cd565b94505060206115508782880161117a565b93505060406115618782880161117a565b92505060606115728782880161117a565b91505092959194509250565b61158781611159565b82525050565b60006020820190506115a2600083018461157e565b92915050565b7f4e487b7100000000000000000000000000000000000000000000000000000000600052603260045260246000fd5b600082825260208201905092915050565b7f496e76616c696420696400000000000000000000000000000000000000000000600082015250565b600061161e600a836115d7565b9150611629826115e8565b602082019050919050565b6000602082019050818103600083015261164d81611611565b9050919050565b7f416d6f756e74206d7573742062652067726561746572207468616e2030000000600082015250565b600061168a601d836115d7565b915061169582611654565b602082019050919050565b600060208201905081810360008301526116b98161167d565b9050919050565b7f4e487b7100000000000000000000000000000000000000000000000000000000600052601160045260246000fd5b60006116fa82611159565b915061170583611159565b925082820390508181111561171d5761171c6116c0565b5b92915050565b7f5468652063757272656e74207374616b696e6720706572696f6420686173206e60008201527f6f7420656e646564000000000000000000000000000000000000000000000000602082015250565b600061177f6028836115d7565b915061178a82611723565b604082019050919050565b600060208201905081810360008301526117ae81611772565b9050919050565b7f5374616b696e67506572696f64206d757374206265206772656174657220746860008201527f616e203000000000000000000000000000000000000000000000000000000000602082015250565b60006118116024836115d7565b915061181c826117b5565b604082019050919050565b6000602082019050818103600083015261184081611804565b9050919050565b7f6f6e6c79206f776e65722063616e2061697264726f7000000000000000000000600082015250565b600061187d6016836115d7565b915061188882611847565b602082019050919050565b600060208201905081810360008301526118ac81611870565b9050919050565b7f576974686472617720616d6f756e74206578636565647320746865207769746860008201527f6472617761626c6520616d6f756e740000000000000000000000000000000000602082015250565b600061190f602f836115d7565b915061191a826118b3565b604082019050919050565b6000602082019050818103600083015261193e81611902565b9050919050565b61194e81611426565b82525050565b60006040820190506119696000830185611945565b611976602083018461157e565b9392505050565b60008115159050919050565b6119928161197d565b811461199d57600080fd5b50565b6000815190506119af81611989565b92915050565b6000602082840312156119cb576119ca61114f565b5b60006119d9848285016119a0565b91505092915050565b60006080820190506119f7600083018761157e565b611a04602083018661157e565b611a11604083018561157e565b611a1e606083018461157e565b95945050505050565b6000606082019050611a3c6000830186611945565b611a496020830185611945565b611a56604083018461157e565b949350505050565b60006fffffffffffffffffffffffffffffffff82169050919050565b6000611a8582611a5e565b91506fffffffffffffffffffffffffffffffff8203611aa757611aa66116c0565b5b600182019050919050565b6000604082019050611ac7600083018561157e565b611ad4602083018461157e565b9392505050565b6000611ae682611159565b9150611af183611159565b9250828202611aff81611159565b91508282048414831517611b1657611b156116c0565b5b5092915050565b6000611b2882611159565b9150611b3383611159565b9250828201905080821115611b4b57611b4a6116c0565b5b9291505056fea264697066735822122023d0bcd86885be8360bc93ce611a529f09c47c80134919ca22186492279ed9f564736f6c63430008170033",
  "linkReferences": {},
  "deployedLinkReferences": {}
}