{
  "_format": "hh-sol-artifact-1",
  "contractName": "AirDrop",
  "sourceName": "contracts/AirDrop.sol",
  "abi": [
    {
      "inputs": [],
      "stateMutability": "nonpayable",
      "type": "constructor"
    },
    {
      "inputs": [
        {
          "internalType": "address",
          "name": "_owner",
          "type": "address"
        }
      ],
      "name": "changeOwner",
      "outputs": [],
      "stateMutability": "nonpayable",
      "type": "function"
    },
    {
      "inputs": [
        {
          "internalType": "address[]",
          "name": "_address",
          "type": "address[]"
        },
        {
          "internalType": "uint256",
          "name": "_amount",
          "type": "uint256"
        },
        {
          "internalType": "address",
          "name": "_tokenAddress",
          "type": "address"
        }
      ],
      "name": "doAirDrop",
      "outputs": [],
      "stateMutability": "nonpayable",
      "type": "function"
    },
    {
      "inputs": [],
      "name": "getOwner",
      "outputs": [
        {
          "internalType": "address",
          "name": "",
          "type": "address"
        }
      ],
      "stateMutability": "view",
      "type": "function"
    }
  ],
  "bytecode": "0x608060405234801561001057600080fd5b50336000806101000a81548173ffffffffffffffffffffffffffffffffffffffff021916908373ffffffffffffffffffffffffffffffffffffffff160217905550610a0d806100606000396000f3fe608060405234801561001057600080fd5b50600436106100415760003560e01c8063764a3cac14610046578063893d20e814610062578063a6f9dae114610080575b600080fd5b610060600480360381019061005b9190610676565b61009c565b005b61006a6102e8565b60405161007791906106f4565b60405180910390f35b61009a6004803603810190610095919061070f565b610315565b005b60008054906101000a900473ffffffffffffffffffffffffffffffffffffffff1673ffffffffffffffffffffffffffffffffffffffff163373ffffffffffffffffffffffffffffffffffffffff161461012a576040517f08c379a000000000000000000000000000000000000000000000000000000000815260040161012190610799565b60405180910390fd5b816000811161016e576040517f08c379a000000000000000000000000000000000000000000000000000000000815260040161016590610805565b60405180910390fd5b600073ffffffffffffffffffffffffffffffffffffffff168273ffffffffffffffffffffffffffffffffffffffff16036101dd576040517f08c379a00000000000000000000000000000000000000000000000000000000081526004016101d490610871565b60405180910390fd5b6000845111610221576040517f08c379a0000000000000000000000000000000000000000000000000000000008152600401610218906108dd565b60405180910390fd5b600082905060005b85518110156102e0576000868281518110610247576102466108fd565b5b602002602001015190508273ffffffffffffffffffffffffffffffffffffffff166323b872dd3383896040518463ffffffff1660e01b815260040161028e9392919061093b565b6020604051808303816000875af11580156102ad573d6000803e3d6000fd5b505050506040513d601f19601f820116820180604052508101906102d191906109aa565b50508080600101915050610229565b505050505050565b60008060008054906101000a900473ffffffffffffffffffffffffffffffffffffffff1690508091505090565b60008054906101000a900473ffffffffffffffffffffffffffffffffffffffff1673ffffffffffffffffffffffffffffffffffffffff163373ffffffffffffffffffffffffffffffffffffffff16146103a3576040517f08c379a000000000000000000000000000000000000000000000000000000000815260040161039a90610799565b60405180910390fd5b600073ffffffffffffffffffffffffffffffffffffffff1660008054906101000a900473ffffffffffffffffffffffffffffffffffffffff1673ffffffffffffffffffffffffffffffffffffffff1603610432576040517f08c379a0000000000000000000000000000000000000000000000000000000008152600401610429906108dd565b60405180910390fd5b806000806101000a81548173ffffffffffffffffffffffffffffffffffffffff021916908373ffffffffffffffffffffffffffffffffffffffff16021790555050565b6000604051905090565b600080fd5b600080fd5b600080fd5b6000601f19601f8301169050919050565b7f4e487b7100000000000000000000000000000000000000000000000000000000600052604160045260246000fd5b6104d78261048e565b810181811067ffffffffffffffff821117156104f6576104f561049f565b5b80604052505050565b6000610509610475565b905061051582826104ce565b919050565b600067ffffffffffffffff8211156105355761053461049f565b5b602082029050602081019050919050565b600080fd5b600073ffffffffffffffffffffffffffffffffffffffff82169050919050565b60006105768261054b565b9050919050565b6105868161056b565b811461059157600080fd5b50565b6000813590506105a38161057d565b92915050565b60006105bc6105b78461051a565b6104ff565b905080838252602082019050602084028301858111156105df576105de610546565b5b835b8181101561060857806105f48882610594565b8452602084019350506020810190506105e1565b5050509392505050565b600082601f83011261062757610626610489565b5b81356106378482602086016105a9565b91505092915050565b6000819050919050565b61065381610640565b811461065e57600080fd5b50565b6000813590506106708161064a565b92915050565b60008060006060848603121561068f5761068e61047f565b5b600084013567ffffffffffffffff8111156106ad576106ac610484565b5b6106b986828701610612565b93505060206106ca86828701610661565b92505060406106db86828701610594565b9150509250925092565b6106ee8161056b565b82525050565b600060208201905061070960008301846106e5565b92915050565b6000602082840312156107255761072461047f565b5b600061073384828501610594565b91505092915050565b600082825260208201905092915050565b7f6f6e6c79206f776e65722063616e2061697264726f7000000000000000000000600082015250565b600061078360168361073c565b915061078e8261074d565b602082019050919050565b600060208201905081810360008301526107b281610776565b9050919050565b7f416d6f756e74206d7573742062652067726561746572207468616e2030000000600082015250565b60006107ef601d8361073c565b91506107fa826107b9565b602082019050919050565b6000602082019050818103600083015261081e816107e2565b9050919050565b7f69742773206e6f742076616c696420746f6b656e204164647265737300000000600082015250565b600061085b601c8361073c565b915061086682610825565b602082019050919050565b6000602082019050818103600083015261088a8161084e565b9050919050565b7f69742773206e6f742076616c6964204164647265737300000000000000000000600082015250565b60006108c760168361073c565b91506108d282610891565b602082019050919050565b600060208201905081810360008301526108f6816108ba565b9050919050565b7f4e487b7100000000000000000000000000000000000000000000000000000000600052603260045260246000fd5b61093581610640565b82525050565b600060608201905061095060008301866106e5565b61095d60208301856106e5565b61096a604083018461092c565b949350505050565b60008115159050919050565b61098781610972565b811461099257600080fd5b50565b6000815190506109a48161097e565b92915050565b6000602082840312156109c0576109bf61047f565b5b60006109ce84828501610995565b9150509291505056fea2646970667358221220bd40a98d1688507ebba4df9212ad23035689dd8ff28f4b72d5355979da2a2b1a64736f6c63430008170033",
  "linkReferences": {},
  "deployedLinkReferences": {}
}