{
  "_format": "hh-sol-artifact-1",
  "contractName": "Staking",
  "sourceName": "contracts/Staking.sol",
  "abi": [
    {
      "inputs": [
        {
          "internalType": "address",
          "name": "_tokenAddress",
          "type": "address"
        }
      ],
      "stateMutability": "nonpayable",
      "type": "constructor"
    },
    {
      "anonymous": false,
      "inputs": [
        {
          "indexed": true,
          "internalType": "address",
          "name": "user",
          "type": "address"
        },
        {
          "indexed": true,
          "internalType": "uint256",
          "name": "id",
          "type": "uint256"
        },
        {
          "indexed": true,
          "internalType": "uint256",
          "name": "stakedAmount",
          "type": "uint256"
        },
        {
          "indexed": false,
          "internalType": "uint256",
          "name": "stakingPeriod",
          "type": "uint256"
        },
        {
          "indexed": false,
          "internalType": "uint256",
          "name": "startTime",
          "type": "uint256"
        }
      ],
      "name": "Stake",
      "type": "event"
    },
    {
      "anonymous": false,
      "inputs": [
        {
          "indexed": true,
          "internalType": "address",
          "name": "user",
          "type": "address"
        },
        {
          "indexed": true,
          "internalType": "uint256",
          "name": "id",
          "type": "uint256"
        },
        {
          "indexed": false,
          "internalType": "uint256",
          "name": "stakedAmount",
          "type": "uint256"
        },
        {
          "indexed": true,
          "internalType": "uint256",
          "name": "withdrawAmount",
          "type": "uint256"
        },
        {
          "indexed": false,
          "internalType": "uint256",
          "name": "stakingPeriod",
          "type": "uint256"
        },
        {
          "indexed": false,
          "internalType": "uint256",
          "name": "startTime",
          "type": "uint256"
        },
        {
          "indexed": false,
          "internalType": "uint256",
          "name": "endTime",
          "type": "uint256"
        }
      ],
      "name": "Withdraw",
      "type": "event"
    },
    {
      "inputs": [],
      "name": "getUserStakingInfo",
      "outputs": [
        {
          "components": [
            {
              "internalType": "uint256",
              "name": "id",
              "type": "uint256"
            },
            {
              "internalType": "uint256",
              "name": "stakedAmount",
              "type": "uint256"
            },
            {
              "internalType": "uint256",
              "name": "stakingPeriod",
              "type": "uint256"
            },
            {
              "internalType": "uint256",
              "name": "startTime",
              "type": "uint256"
            },
            {
              "internalType": "uint256",
              "name": "rewardRate",
              "type": "uint256"
            }
          ],
          "internalType": "struct Staking.StakingInfo[]",
          "name": "",
          "type": "tuple[]"
        }
      ],
      "stateMutability": "view",
      "type": "function"
    },
    {
      "inputs": [
        {
          "internalType": "address[]",
          "name": "_address",
          "type": "address[]"
        },
        {
          "internalType": "uint256",
          "name": "amount",
          "type": "uint256"
        },
        {
          "internalType": "uint256",
          "name": "stakingPeriod",
          "type": "uint256"
        },
        {
          "internalType": "uint256",
          "name": "reward",
          "type": "uint256"
        }
      ],
      "name": "stake",
      "outputs": [],
      "stateMutability": "nonpayable",
      "type": "function"
    },
    {
      "inputs": [
        {
          "internalType": "uint256",
          "name": "id",
          "type": "uint256"
        },
        {
          "internalType": "uint256",
          "name": "withdrawAmount",
          "type": "uint256"
        }
      ],
      "name": "withdraw",
      "outputs": [],
      "stateMutability": "nonpayable",
      "type": "function"
    },
    {
      "inputs": [
        {
          "internalType": "uint256",
          "name": "id",
          "type": "uint256"
        }
      ],
      "name": "withdrawAll",
      "outputs": [],
      "stateMutability": "nonpayable",
      "type": "function"
    },
    {
      "inputs": [
        {
          "internalType": "uint256",
          "name": "id",
          "type": "uint256"
        }
      ],
      "name": "withdrawableAmount",
      "outputs": [
        {
          "internalType": "uint256",
          "name": "",
          "type": "uint256"
        }
      ],
      "stateMutability": "view",
      "type": "function"
    }
  ],
  "bytecode": "0x60806040523480156200001157600080fd5b5060405162001d1038038062001d1083398181016040528101906200003791906200019b565b600073ffffffffffffffffffffffffffffffffffffffff168173ffffffffffffffffffffffffffffffffffffffff1603620000a9576040517f08c379a0000000000000000000000000000000000000000000000000000000008152600401620000a0906200022e565b60405180910390fd5b33600160006101000a81548173ffffffffffffffffffffffffffffffffffffffff021916908373ffffffffffffffffffffffffffffffffffffffff160217905550806000806101000a81548173ffffffffffffffffffffffffffffffffffffffff021916908373ffffffffffffffffffffffffffffffffffffffff1602179055505062000250565b600080fd5b600073ffffffffffffffffffffffffffffffffffffffff82169050919050565b6000620001638262000136565b9050919050565b620001758162000156565b81146200018157600080fd5b50565b60008151905062000195816200016a565b92915050565b600060208284031215620001b457620001b362000131565b5b6000620001c48482850162000184565b91505092915050565b600082825260208201905092915050565b7f69742773206e6f742076616c696420746f6b656e204164647265737300000000600082015250565b600062000216601c83620001cd565b91506200022382620001de565b602082019050919050565b60006020820190508181036000830152620002498162000207565b9050919050565b611ab080620002606000396000f3fe608060405234801561001057600080fd5b50600436106100575760003560e01c8063441a3e701461005c5780634903371714610078578063958e2d3114610096578063a3b1af97146100b2578063d0cee66a146100ce575b600080fd5b610076600480360381019061007191906110b8565b6100fe565b005b610080610322565b60405161008d919061121e565b60405180910390f35b6100b060048036038101906100ab9190611240565b6103f0565b005b6100cc60048036038101906100c79190611424565b6105cd565b005b6100e860048036038101906100e39190611240565b61072d565b6040516100f591906114b6565b60405180910390f35b33826000600360008473ffffffffffffffffffffffffffffffffffffffff1673ffffffffffffffffffffffffffffffffffffffff1681526020019081526020016000208281548110610153576101526114d1565b5b906000526020600020906005020160010154116101a5576040517f08c379a000000000000000000000000000000000000000000000000000000000815260040161019c9061155d565b60405180910390fd5b82600081116101e9576040517f08c379a00000000000000000000000000000000000000000000000000000000081526004016101e0906115c9565b60405180910390fd5b33856000600360008473ffffffffffffffffffffffffffffffffffffffff1673ffffffffffffffffffffffffffffffffffffffff168152602001908152602001600020828154811061023e5761023d6114d1565b5b90600052602060002090600502016003015490506000600360008573ffffffffffffffffffffffffffffffffffffffff1673ffffffffffffffffffffffffffffffffffffffff16815260200190815260200160002083815481106102a5576102a46114d1565b5b9060005260206000209060050201600201549050600082426102c79190611618565b90508181101561030c576040517f08c379a0000000000000000000000000000000000000000000000000000000008152600401610303906116be565b60405180910390fd5b610316898b610910565b50505050505050505050565b6060600360003373ffffffffffffffffffffffffffffffffffffffff1673ffffffffffffffffffffffffffffffffffffffff168152602001908152602001600020805480602002602001604051908101604052809291908181526020016000905b828210156103e757838290600052602060002090600502016040518060a00160405290816000820154815260200160018201548152602001600282015481526020016003820154815260200160048201548152505081526020019060010190610383565b50505050905090565b33816000600360008473ffffffffffffffffffffffffffffffffffffffff1673ffffffffffffffffffffffffffffffffffffffff1681526020019081526020016000208281548110610445576104446114d1565b5b90600052602060002090600502016001015411610497576040517f08c379a000000000000000000000000000000000000000000000000000000000815260040161048e9061155d565b60405180910390fd5b33836000600360008473ffffffffffffffffffffffffffffffffffffffff1673ffffffffffffffffffffffffffffffffffffffff16815260200190815260200160002082815481106104ec576104eb6114d1565b5b90600052602060002090600502016003015490506000600360008573ffffffffffffffffffffffffffffffffffffffff1673ffffffffffffffffffffffffffffffffffffffff1681526020019081526020016000208381548110610553576105526114d1565b5b9060005260206000209060050201600201549050600082426105759190611618565b9050818110156105ba576040517f08c379a00000000000000000000000000000000000000000000000000000000081526004016105b1906116be565b60405180910390fd5b6105c388610b4e565b5050505050505050565b8260008111610611576040517f08c379a0000000000000000000000000000000000000000000000000000000008152600401610608906115c9565b60405180910390fd5b8260008111610655576040517f08c379a000000000000000000000000000000000000000000000000000000000815260040161064c90611750565b60405180910390fd5b600160009054906101000a900473ffffffffffffffffffffffffffffffffffffffff1673ffffffffffffffffffffffffffffffffffffffff163373ffffffffffffffffffffffffffffffffffffffff16146106e5576040517f08c379a00000000000000000000000000000000000000000000000000000000081526004016106dc906117bc565b60405180910390fd5b60005b865181101561072457610717878281518110610707576107066114d1565b5b6020026020010151878787610d4e565b80806001019150506106e8565b50505050505050565b600033826000600360008473ffffffffffffffffffffffffffffffffffffffff1673ffffffffffffffffffffffffffffffffffffffff1681526020019081526020016000208281548110610784576107836114d1565b5b906000526020600020906005020160010154116107d6576040517f08c379a00000000000000000000000000000000000000000000000000000000081526004016107cd9061155d565b60405180910390fd5b33846000600360008473ffffffffffffffffffffffffffffffffffffffff1673ffffffffffffffffffffffffffffffffffffffff168152602001908152602001600020828154811061082b5761082a6114d1565b5b90600052602060002090600502016003015490506000600360008573ffffffffffffffffffffffffffffffffffffffff1673ffffffffffffffffffffffffffffffffffffffff1681526020019081526020016000208381548110610892576108916114d1565b5b9060005260206000209060050201600201549050600082426108b49190611618565b9050818110156108f9576040517f08c379a00000000000000000000000000000000000000000000000000000000081526004016108f0906116be565b60405180910390fd5b61090289610fc2565b975050505050505050919050565b6000600360003373ffffffffffffffffffffffffffffffffffffffff1673ffffffffffffffffffffffffffffffffffffffff1681526020019081526020016000208381548110610963576109626114d1565b5b90600052602060002090600502019050600061097e84610fc2565b9050808311156109c3576040517f08c379a00000000000000000000000000000000000000000000000000000000081526004016109ba9061184e565b60405180910390fd5b60008260010154905060008360020154905060008460030154905083836109ea9190611618565b600360003373ffffffffffffffffffffffffffffffffffffffff1673ffffffffffffffffffffffffffffffffffffffff1681526020019081526020016000208881548110610a3b57610a3a6114d1565b5b90600052602060002090600502016001018190555060008054906101000a900473ffffffffffffffffffffffffffffffffffffffff1673ffffffffffffffffffffffffffffffffffffffff1663a9059cbb33886040518363ffffffff1660e01b8152600401610aab92919061187d565b6020604051808303816000875af1158015610aca573d6000803e3d6000fd5b505050506040513d601f19601f82011682018060405250810190610aee91906118de565b5085873373ffffffffffffffffffffffffffffffffffffffff167f194c8d0132d20112211dfa71bb87a92766fde4f4318e08efd2cc4a6e188e509d86868642604051610b3d949392919061190b565b60405180910390a450505050505050565b6000600360003373ffffffffffffffffffffffffffffffffffffffff1673ffffffffffffffffffffffffffffffffffffffff1681526020019081526020016000208281548110610ba157610ba06114d1565b5b906000526020600020906005020190506000610bbc83610fc2565b9050600360003373ffffffffffffffffffffffffffffffffffffffff1673ffffffffffffffffffffffffffffffffffffffff1681526020019081526020016000208381548110610c0f57610c0e6114d1565b5b90600052602060002090600502016000808201600090556001820160009055600282016000905560038201600090556004820160009055505060008054906101000a900473ffffffffffffffffffffffffffffffffffffffff1673ffffffffffffffffffffffffffffffffffffffff1663a9059cbb33836040518363ffffffff1660e01b8152600401610ca392919061187d565b6020604051808303816000875af1158015610cc2573d6000803e3d6000fd5b505050506040513d601f19601f82011682018060405250810190610ce691906118de565b5080833373ffffffffffffffffffffffffffffffffffffffff167f194c8d0132d20112211dfa71bb87a92766fde4f4318e08efd2cc4a6e188e509d85600101548660020154876003015442604051610d41949392919061190b565b60405180910390a4505050565b6000600260009054906101000a90046fffffffffffffffffffffffffffffffff166fffffffffffffffffffffffffffffffff16905060008054906101000a900473ffffffffffffffffffffffffffffffffffffffff1673ffffffffffffffffffffffffffffffffffffffff166323b872dd600160009054906101000a900473ffffffffffffffffffffffffffffffffffffffff1630876040518463ffffffff1660e01b8152600401610e0293929190611950565b6020604051808303816000875af1158015610e21573d6000803e3d6000fd5b505050506040513d601f19601f82011682018060405250810190610e4591906118de565b50600360008673ffffffffffffffffffffffffffffffffffffffff1673ffffffffffffffffffffffffffffffffffffffff1681526020019081526020016000206040518060a00160405280838152602001868152602001858152602001428152602001848152509080600181540180825580915050600190039060005260206000209060050201600090919091909150600082015181600001556020820151816001015560408201518160020155606082015181600301556080820151816004015550506002600081819054906101000a90046fffffffffffffffffffffffffffffffff16610f33906119a3565b91906101000a8154816fffffffffffffffffffffffffffffffff02191690836fffffffffffffffffffffffffffffffff16021790555083818673ffffffffffffffffffffffffffffffffffffffff167f2720efa4b2dd4f3f8a347da3cbd290a522e9432da9072c5b8e6300496fdde2824287604051610fb39291906119db565b60405180910390a45050505050565b600080600360003373ffffffffffffffffffffffffffffffffffffffff1673ffffffffffffffffffffffffffffffffffffffff1681526020019081526020016000208381548110611016576110156114d1565b5b9060005260206000209060050201905060008160030154426110389190611618565b9050600082600401549050600082826110519190611a04565b84600101546110609190611a46565b905080945050505050919050565b6000604051905090565b600080fd5b600080fd5b6000819050919050565b61109581611082565b81146110a057600080fd5b50565b6000813590506110b28161108c565b92915050565b600080604083850312156110cf576110ce611078565b5b60006110dd858286016110a3565b92505060206110ee858286016110a3565b9150509250929050565b600081519050919050565b600082825260208201905092915050565b6000819050602082019050919050565b61112d81611082565b82525050565b60a0820160008201516111496000850182611124565b50602082015161115c6020850182611124565b50604082015161116f6040850182611124565b5060608201516111826060850182611124565b5060808201516111956080850182611124565b50505050565b60006111a78383611133565b60a08301905092915050565b6000602082019050919050565b60006111cb826110f8565b6111d58185611103565b93506111e083611114565b8060005b838110156112115781516111f8888261119b565b9750611203836111b3565b9250506001810190506111e4565b5085935050505092915050565b6000602082019050818103600083015261123881846111c0565b905092915050565b60006020828403121561125657611255611078565b5b6000611264848285016110a3565b91505092915050565b600080fd5b6000601f19601f8301169050919050565b7f4e487b7100000000000000000000000000000000000000000000000000000000600052604160045260246000fd5b6112bb82611272565b810181811067ffffffffffffffff821117156112da576112d9611283565b5b80604052505050565b60006112ed61106e565b90506112f982826112b2565b919050565b600067ffffffffffffffff82111561131957611318611283565b5b602082029050602081019050919050565b600080fd5b600073ffffffffffffffffffffffffffffffffffffffff82169050919050565b600061135a8261132f565b9050919050565b61136a8161134f565b811461137557600080fd5b50565b60008135905061138781611361565b92915050565b60006113a061139b846112fe565b6112e3565b905080838252602082019050602084028301858111156113c3576113c261132a565b5b835b818110156113ec57806113d88882611378565b8452602084019350506020810190506113c5565b5050509392505050565b600082601f83011261140b5761140a61126d565b5b813561141b84826020860161138d565b91505092915050565b6000806000806080858703121561143e5761143d611078565b5b600085013567ffffffffffffffff81111561145c5761145b61107d565b5b611468878288016113f6565b9450506020611479878288016110a3565b935050604061148a878288016110a3565b925050606061149b878288016110a3565b91505092959194509250565b6114b081611082565b82525050565b60006020820190506114cb60008301846114a7565b92915050565b7f4e487b7100000000000000000000000000000000000000000000000000000000600052603260045260246000fd5b600082825260208201905092915050565b7f496e76616c696420696400000000000000000000000000000000000000000000600082015250565b6000611547600a83611500565b915061155282611511565b602082019050919050565b600060208201905081810360008301526115768161153a565b9050919050565b7f416d6f756e74206d7573742062652067726561746572207468616e2030000000600082015250565b60006115b3601d83611500565b91506115be8261157d565b602082019050919050565b600060208201905081810360008301526115e2816115a6565b9050919050565b7f4e487b7100000000000000000000000000000000000000000000000000000000600052601160045260246000fd5b600061162382611082565b915061162e83611082565b9250828203905081811115611646576116456115e9565b5b92915050565b7f5468652063757272656e74207374616b696e6720706572696f6420686173206e60008201527f6f7420656e646564000000000000000000000000000000000000000000000000602082015250565b60006116a8602883611500565b91506116b38261164c565b604082019050919050565b600060208201905081810360008301526116d78161169b565b9050919050565b7f5374616b696e67506572696f64206d757374206265206772656174657220746860008201527f616e203000000000000000000000000000000000000000000000000000000000602082015250565b600061173a602483611500565b9150611745826116de565b604082019050919050565b600060208201905081810360008301526117698161172d565b9050919050565b7f6f6e6c79206f776e65722063616e2061697264726f7000000000000000000000600082015250565b60006117a6601683611500565b91506117b182611770565b602082019050919050565b600060208201905081810360008301526117d581611799565b9050919050565b7f576974686472617720616d6f756e74206578636565647320746865207769746860008201527f6472617761626c6520616d6f756e740000000000000000000000000000000000602082015250565b6000611838602f83611500565b9150611843826117dc565b604082019050919050565b600060208201905081810360008301526118678161182b565b9050919050565b6118778161134f565b82525050565b6000604082019050611892600083018561186e565b61189f60208301846114a7565b9392505050565b60008115159050919050565b6118bb816118a6565b81146118c657600080fd5b50565b6000815190506118d8816118b2565b92915050565b6000602082840312156118f4576118f3611078565b5b6000611902848285016118c9565b91505092915050565b600060808201905061192060008301876114a7565b61192d60208301866114a7565b61193a60408301856114a7565b61194760608301846114a7565b95945050505050565b6000606082019050611965600083018661186e565b611972602083018561186e565b61197f60408301846114a7565b949350505050565b60006fffffffffffffffffffffffffffffffff82169050919050565b60006119ae82611987565b91506fffffffffffffffffffffffffffffffff82036119d0576119cf6115e9565b5b600182019050919050565b60006040820190506119f060008301856114a7565b6119fd60208301846114a7565b9392505050565b6000611a0f82611082565b9150611a1a83611082565b9250828202611a2881611082565b91508282048414831517611a3f57611a3e6115e9565b5b5092915050565b6000611a5182611082565b9150611a5c83611082565b9250828201905080821115611a7457611a736115e9565b5b9291505056fea2646970667358221220e4739a34284046e04a69a7db295be484b6b84b8ee88ceb184084456189f41e9864736f6c63430008170033",
  "linkReferences": {},
  "deployedLinkReferences": {}
}