{
  "_format": "hh-sol-artifact-1",
  "contractName": "Staking",
  "sourceName": "contracts/Staking.sol",
  "abi": [
    {
      "inputs": [
        {
          "internalType": "address",
          "name": "_tokenAddress",
          "type": "address"
        }
      ],
      "stateMutability": "nonpayable",
      "type": "constructor"
    },
    {
      "anonymous": false,
      "inputs": [
        {
          "indexed": true,
          "internalType": "address",
          "name": "user",
          "type": "address"
        },
        {
          "indexed": true,
          "internalType": "uint256",
          "name": "id",
          "type": "uint256"
        },
        {
          "indexed": true,
          "internalType": "uint256",
          "name": "stakedAmount",
          "type": "uint256"
        },
        {
          "indexed": false,
          "internalType": "uint256",
          "name": "stakingPeriod",
          "type": "uint256"
        },
        {
          "indexed": false,
          "internalType": "uint256",
          "name": "startTime",
          "type": "uint256"
        }
      ],
      "name": "Stake",
      "type": "event"
    },
    {
      "anonymous": false,
      "inputs": [
        {
          "indexed": true,
          "internalType": "address",
          "name": "user",
          "type": "address"
        },
        {
          "indexed": true,
          "internalType": "uint256",
          "name": "id",
          "type": "uint256"
        },
        {
          "indexed": false,
          "internalType": "uint256",
          "name": "stakedAmount",
          "type": "uint256"
        },
        {
          "indexed": true,
          "internalType": "uint256",
          "name": "withdrawAmount",
          "type": "uint256"
        },
        {
          "indexed": false,
          "internalType": "uint256",
          "name": "stakingPeriod",
          "type": "uint256"
        },
        {
          "indexed": false,
          "internalType": "uint256",
          "name": "startTime",
          "type": "uint256"
        },
        {
          "indexed": false,
          "internalType": "uint256",
          "name": "endTime",
          "type": "uint256"
        }
      ],
      "name": "Withdraw",
      "type": "event"
    },
    {
      "inputs": [
        {
          "internalType": "address",
          "name": "_owner",
          "type": "address"
        }
      ],
      "name": "changeOwner",
      "outputs": [],
      "stateMutability": "nonpayable",
      "type": "function"
    },
    {
      "inputs": [],
      "name": "getOwner",
      "outputs": [
        {
          "internalType": "address",
          "name": "",
          "type": "address"
        }
      ],
      "stateMutability": "view",
      "type": "function"
    },
    {
      "inputs": [],
      "name": "getUserStakingInfo",
      "outputs": [
        {
          "components": [
            {
              "internalType": "uint256",
              "name": "id",
              "type": "uint256"
            },
            {
              "internalType": "uint256",
              "name": "stakedAmount",
              "type": "uint256"
            },
            {
              "internalType": "uint256",
              "name": "stakingPeriod",
              "type": "uint256"
            },
            {
              "internalType": "uint256",
              "name": "startTime",
              "type": "uint256"
            },
            {
              "internalType": "uint256",
              "name": "reward",
              "type": "uint256"
            }
          ],
          "internalType": "struct Staking.StakingInfo[]",
          "name": "",
          "type": "tuple[]"
        }
      ],
      "stateMutability": "view",
      "type": "function"
    },
    {
      "inputs": [
        {
          "internalType": "address[]",
          "name": "_address",
          "type": "address[]"
        },
        {
          "internalType": "uint256",
          "name": "amount",
          "type": "uint256"
        },
        {
          "internalType": "uint256",
          "name": "stakingPeriod",
          "type": "uint256"
        },
        {
          "internalType": "uint256",
          "name": "reward",
          "type": "uint256"
        }
      ],
      "name": "stake",
      "outputs": [],
      "stateMutability": "nonpayable",
      "type": "function"
    },
    {
      "inputs": [
        {
          "internalType": "uint256",
          "name": "id",
          "type": "uint256"
        },
        {
          "internalType": "uint256",
          "name": "withdrawAmount",
          "type": "uint256"
        }
      ],
      "name": "withdraw",
      "outputs": [],
      "stateMutability": "nonpayable",
      "type": "function"
    },
    {
      "inputs": [
        {
          "internalType": "uint256",
          "name": "id",
          "type": "uint256"
        }
      ],
      "name": "withdrawAll",
      "outputs": [],
      "stateMutability": "nonpayable",
      "type": "function"
    },
    {
      "inputs": [
        {
          "internalType": "uint256",
          "name": "id",
          "type": "uint256"
        }
      ],
      "name": "withdrawableAmount",
      "outputs": [
        {
          "internalType": "uint256",
          "name": "",
          "type": "uint256"
        }
      ],
      "stateMutability": "view",
      "type": "function"
    }
  ],
  "bytecode": "0x60806040523480156200001157600080fd5b50604051620020333803806200203383398181016040528101906200003791906200019b565b600073ffffffffffffffffffffffffffffffffffffffff168173ffffffffffffffffffffffffffffffffffffffff1603620000a9576040517f08c379a0000000000000000000000000000000000000000000000000000000008152600401620000a0906200022e565b60405180910390fd5b33600160006101000a81548173ffffffffffffffffffffffffffffffffffffffff021916908373ffffffffffffffffffffffffffffffffffffffff160217905550806000806101000a81548173ffffffffffffffffffffffffffffffffffffffff021916908373ffffffffffffffffffffffffffffffffffffffff1602179055505062000250565b600080fd5b600073ffffffffffffffffffffffffffffffffffffffff82169050919050565b6000620001638262000136565b9050919050565b620001758162000156565b81146200018157600080fd5b50565b60008151905062000195816200016a565b92915050565b600060208284031215620001b457620001b362000131565b5b6000620001c48482850162000184565b91505092915050565b600082825260208201905092915050565b7f69742773206e6f742076616c696420746f6b656e204164647265737300000000600082015250565b600062000216601c83620001cd565b91506200022382620001de565b602082019050919050565b60006020820190508181036000830152620002498162000207565b9050919050565b611dd380620002606000396000f3fe608060405234801561001057600080fd5b506004361061007d5760003560e01c8063958e2d311161005b578063958e2d31146100da578063a3b1af97146100f6578063a6f9dae114610112578063d0cee66a1461012e5761007d565b8063441a3e7014610082578063490337171461009e578063893d20e8146100bc575b600080fd5b61009c60048036038101906100979190611327565b61015e565b005b6100a6610383565b6040516100b3919061148d565b60405180910390f35b6100c4610451565b6040516100d191906114f0565b60405180910390f35b6100f460048036038101906100ef919061150b565b610480565b005b610110600480360381019061010b91906116bd565b61065e565b005b61012c60048036038101906101279190611740565b6107be565b005b6101486004803603810190610143919061150b565b610923565b604051610155919061177c565b60405180910390f35b33826000600360008473ffffffffffffffffffffffffffffffffffffffff1673ffffffffffffffffffffffffffffffffffffffff16815260200190815260200160002082815481106101b3576101b2611797565b5b90600052602060002090600502016001015411610205576040517f08c379a00000000000000000000000000000000000000000000000000000000081526004016101fc90611823565b60405180910390fd5b8260008111610249576040517f08c379a00000000000000000000000000000000000000000000000000000000081526004016102409061188f565b60405180910390fd5b33856000600360008473ffffffffffffffffffffffffffffffffffffffff1673ffffffffffffffffffffffffffffffffffffffff168152602001908152602001600020828154811061029e5761029d611797565b5b90600052602060002090600502016003015490506000600360008573ffffffffffffffffffffffffffffffffffffffff1673ffffffffffffffffffffffffffffffffffffffff168152602001908152602001600020838154811061030557610304611797565b5b90600052602060002090600502016002015490506000824261032791906118de565b90508181101561036c576040517f08c379a000000000000000000000000000000000000000000000000000000000815260040161036390611984565b60405180910390fd5b610377898b33610b07565b50505050505050505050565b6060600360003373ffffffffffffffffffffffffffffffffffffffff1673ffffffffffffffffffffffffffffffffffffffff168152602001908152602001600020805480602002602001604051908101604052809291908181526020016000905b8282101561044857838290600052602060002090600502016040518060a001604052908160008201548152602001600182015481526020016002820154815260200160038201548152602001600482015481525050815260200190600101906103e4565b50505050905090565b600080600160009054906101000a900473ffffffffffffffffffffffffffffffffffffffff1690508091505090565b33816000600360008473ffffffffffffffffffffffffffffffffffffffff1673ffffffffffffffffffffffffffffffffffffffff16815260200190815260200160002082815481106104d5576104d4611797565b5b90600052602060002090600502016001015411610527576040517f08c379a000000000000000000000000000000000000000000000000000000000815260040161051e90611823565b60405180910390fd5b33836000600360008473ffffffffffffffffffffffffffffffffffffffff1673ffffffffffffffffffffffffffffffffffffffff168152602001908152602001600020828154811061057c5761057b611797565b5b90600052602060002090600502016003015490506000600360008573ffffffffffffffffffffffffffffffffffffffff1673ffffffffffffffffffffffffffffffffffffffff16815260200190815260200160002083815481106105e3576105e2611797565b5b90600052602060002090600502016002015490506000824261060591906118de565b90508181101561064a576040517f08c379a000000000000000000000000000000000000000000000000000000000815260040161064190611984565b60405180910390fd5b6106548833610daf565b5050505050505050565b82600081116106a2576040517f08c379a00000000000000000000000000000000000000000000000000000000081526004016106999061188f565b60405180910390fd5b82600081116106e6576040517f08c379a00000000000000000000000000000000000000000000000000000000081526004016106dd90611a16565b60405180910390fd5b600160009054906101000a900473ffffffffffffffffffffffffffffffffffffffff1673ffffffffffffffffffffffffffffffffffffffff163373ffffffffffffffffffffffffffffffffffffffff1614610776576040517f08c379a000000000000000000000000000000000000000000000000000000000815260040161076d90611a82565b60405180910390fd5b60005b86518110156107b5576107a887828151811061079857610797611797565b5b6020026020010151878787610fb1565b8080600101915050610779565b50505050505050565b600160009054906101000a900473ffffffffffffffffffffffffffffffffffffffff1673ffffffffffffffffffffffffffffffffffffffff163373ffffffffffffffffffffffffffffffffffffffff161461084e576040517f08c379a000000000000000000000000000000000000000000000000000000000815260040161084590611a82565b60405180910390fd5b600073ffffffffffffffffffffffffffffffffffffffff16600160009054906101000a900473ffffffffffffffffffffffffffffffffffffffff1673ffffffffffffffffffffffffffffffffffffffff16036108df576040517f08c379a00000000000000000000000000000000000000000000000000000000081526004016108d690611aee565b60405180910390fd5b80600160006101000a81548173ffffffffffffffffffffffffffffffffffffffff021916908373ffffffffffffffffffffffffffffffffffffffff16021790555050565b600033826000600360008473ffffffffffffffffffffffffffffffffffffffff1673ffffffffffffffffffffffffffffffffffffffff168152602001908152602001600020828154811061097a57610979611797565b5b906000526020600020906005020160010154116109cc576040517f08c379a00000000000000000000000000000000000000000000000000000000081526004016109c390611823565b60405180910390fd5b33846000600360008473ffffffffffffffffffffffffffffffffffffffff1673ffffffffffffffffffffffffffffffffffffffff1681526020019081526020016000208281548110610a2157610a20611797565b5b90600052602060002090600502016003015490506000600360008573ffffffffffffffffffffffffffffffffffffffff1673ffffffffffffffffffffffffffffffffffffffff1681526020019081526020016000208381548110610a8857610a87611797565b5b906000526020600020906005020160020154905060008242610aaa91906118de565b905081811015610aef576040517f08c379a0000000000000000000000000000000000000000000000000000000008152600401610ae690611984565b60405180910390fd5b610af9893361123b565b975050505050505050919050565b6000600360008373ffffffffffffffffffffffffffffffffffffffff1673ffffffffffffffffffffffffffffffffffffffff1681526020019081526020016000208381548110610b5a57610b59611797565b5b906000526020600020906005020190506000610b76848461123b565b905080851115610bbb576040517f08c379a0000000000000000000000000000000000000000000000000000000008152600401610bb290611b80565b60405180910390fd5b6000826001015490506000836002015490506000846003015490508784610be291906118de565b600360008873ffffffffffffffffffffffffffffffffffffffff1673ffffffffffffffffffffffffffffffffffffffff1681526020019081526020016000208881548110610c3357610c32611797565b5b9060005260206000209060050201600101819055506000600360008873ffffffffffffffffffffffffffffffffffffffff1673ffffffffffffffffffffffffffffffffffffffff1681526020019081526020016000208881548110610c9b57610c9a611797565b5b90600052602060002090600502016004018190555060008054906101000a900473ffffffffffffffffffffffffffffffffffffffff1673ffffffffffffffffffffffffffffffffffffffff1663a9059cbb878a6040518363ffffffff1660e01b8152600401610d0b929190611ba0565b6020604051808303816000875af1158015610d2a573d6000803e3d6000fd5b505050506040513d601f19601f82011682018060405250810190610d4e9190611c01565b5087878773ffffffffffffffffffffffffffffffffffffffff167f194c8d0132d20112211dfa71bb87a92766fde4f4318e08efd2cc4a6e188e509d86868642604051610d9d9493929190611c2e565b60405180910390a45050505050505050565b6000600360008373ffffffffffffffffffffffffffffffffffffffff1673ffffffffffffffffffffffffffffffffffffffff1681526020019081526020016000208381548110610e0257610e01611797565b5b906000526020600020906005020190506000610e1e848461123b565b9050600360008473ffffffffffffffffffffffffffffffffffffffff1673ffffffffffffffffffffffffffffffffffffffff1681526020019081526020016000208481548110610e7157610e70611797565b5b90600052602060002090600502016000808201600090556001820160009055600282016000905560038201600090556004820160009055505060008054906101000a900473ffffffffffffffffffffffffffffffffffffffff1673ffffffffffffffffffffffffffffffffffffffff1663a9059cbb84836040518363ffffffff1660e01b8152600401610f05929190611ba0565b6020604051808303816000875af1158015610f24573d6000803e3d6000fd5b505050506040513d601f19601f82011682018060405250810190610f489190611c01565b5080848473ffffffffffffffffffffffffffffffffffffffff167f194c8d0132d20112211dfa71bb87a92766fde4f4318e08efd2cc4a6e188e509d85600101548660020154876003015442604051610fa39493929190611c2e565b60405180910390a450505050565b6000600260009054906101000a90046fffffffffffffffffffffffffffffffff166fffffffffffffffffffffffffffffffff16905060008054906101000a900473ffffffffffffffffffffffffffffffffffffffff1673ffffffffffffffffffffffffffffffffffffffff166323b872dd600160009054906101000a900473ffffffffffffffffffffffffffffffffffffffff163085876110529190611c73565b8861105d9190611cb5565b6040518463ffffffff1660e01b815260040161107b93929190611ce9565b6020604051808303816000875af115801561109a573d6000803e3d6000fd5b505050506040513d601f19601f820116820180604052508101906110be9190611c01565b50600360008673ffffffffffffffffffffffffffffffffffffffff1673ffffffffffffffffffffffffffffffffffffffff1681526020019081526020016000206040518060a00160405280838152602001868152602001858152602001428152602001848152509080600181540180825580915050600190039060005260206000209060050201600090919091909150600082015181600001556020820151816001015560408201518160020155606082015181600301556080820151816004015550506002600081819054906101000a90046fffffffffffffffffffffffffffffffff166111ac90611d3c565b91906101000a8154816fffffffffffffffffffffffffffffffff02191690836fffffffffffffffffffffffffffffffff16021790555083818673ffffffffffffffffffffffffffffffffffffffff167f2720efa4b2dd4f3f8a347da3cbd290a522e9432da9072c5b8e6300496fdde282428760405161122c929190611d74565b60405180910390a45050505050565b600080600360008473ffffffffffffffffffffffffffffffffffffffff1673ffffffffffffffffffffffffffffffffffffffff168152602001908152602001600020848154811061128f5761128e611797565b5b90600052602060002090600502019050600081600201549050600082600401549050600082826112bf9190611c73565b84600101546112ce9190611cb5565b90508094505050505092915050565b6000604051905090565b600080fd5b600080fd5b6000819050919050565b611304816112f1565b811461130f57600080fd5b50565b600081359050611321816112fb565b92915050565b6000806040838503121561133e5761133d6112e7565b5b600061134c85828601611312565b925050602061135d85828601611312565b9150509250929050565b600081519050919050565b600082825260208201905092915050565b6000819050602082019050919050565b61139c816112f1565b82525050565b60a0820160008201516113b86000850182611393565b5060208201516113cb6020850182611393565b5060408201516113de6040850182611393565b5060608201516113f16060850182611393565b5060808201516114046080850182611393565b50505050565b600061141683836113a2565b60a08301905092915050565b6000602082019050919050565b600061143a82611367565b6114448185611372565b935061144f83611383565b8060005b83811015611480578151611467888261140a565b975061147283611422565b925050600181019050611453565b5085935050505092915050565b600060208201905081810360008301526114a7818461142f565b905092915050565b600073ffffffffffffffffffffffffffffffffffffffff82169050919050565b60006114da826114af565b9050919050565b6114ea816114cf565b82525050565b600060208201905061150560008301846114e1565b92915050565b600060208284031215611521576115206112e7565b5b600061152f84828501611312565b91505092915050565b600080fd5b6000601f19601f8301169050919050565b7f4e487b7100000000000000000000000000000000000000000000000000000000600052604160045260246000fd5b6115868261153d565b810181811067ffffffffffffffff821117156115a5576115a461154e565b5b80604052505050565b60006115b86112dd565b90506115c4828261157d565b919050565b600067ffffffffffffffff8211156115e4576115e361154e565b5b602082029050602081019050919050565b600080fd5b611603816114cf565b811461160e57600080fd5b50565b600081359050611620816115fa565b92915050565b6000611639611634846115c9565b6115ae565b9050808382526020820190506020840283018581111561165c5761165b6115f5565b5b835b8181101561168557806116718882611611565b84526020840193505060208101905061165e565b5050509392505050565b600082601f8301126116a4576116a3611538565b5b81356116b4848260208601611626565b91505092915050565b600080600080608085870312156116d7576116d66112e7565b5b600085013567ffffffffffffffff8111156116f5576116f46112ec565b5b6117018782880161168f565b945050602061171287828801611312565b935050604061172387828801611312565b925050606061173487828801611312565b91505092959194509250565b600060208284031215611756576117556112e7565b5b600061176484828501611611565b91505092915050565b611776816112f1565b82525050565b6000602082019050611791600083018461176d565b92915050565b7f4e487b7100000000000000000000000000000000000000000000000000000000600052603260045260246000fd5b600082825260208201905092915050565b7f496e76616c696420696400000000000000000000000000000000000000000000600082015250565b600061180d600a836117c6565b9150611818826117d7565b602082019050919050565b6000602082019050818103600083015261183c81611800565b9050919050565b7f416d6f756e74206d7573742062652067726561746572207468616e2030000000600082015250565b6000611879601d836117c6565b915061188482611843565b602082019050919050565b600060208201905081810360008301526118a88161186c565b9050919050565b7f4e487b7100000000000000000000000000000000000000000000000000000000600052601160045260246000fd5b60006118e9826112f1565b91506118f4836112f1565b925082820390508181111561190c5761190b6118af565b5b92915050565b7f5468652063757272656e74207374616b696e6720706572696f6420686173206e60008201527f6f7420656e646564000000000000000000000000000000000000000000000000602082015250565b600061196e6028836117c6565b915061197982611912565b604082019050919050565b6000602082019050818103600083015261199d81611961565b9050919050565b7f5374616b696e67506572696f64206d757374206265206772656174657220746860008201527f616e203000000000000000000000000000000000000000000000000000000000602082015250565b6000611a006024836117c6565b9150611a0b826119a4565b604082019050919050565b60006020820190508181036000830152611a2f816119f3565b9050919050565b7f6f6e6c79206f776e65722063616e2061697264726f7000000000000000000000600082015250565b6000611a6c6016836117c6565b9150611a7782611a36565b602082019050919050565b60006020820190508181036000830152611a9b81611a5f565b9050919050565b7f69742773206e6f742076616c6964204164647265737300000000000000000000600082015250565b6000611ad86016836117c6565b9150611ae382611aa2565b602082019050919050565b60006020820190508181036000830152611b0781611acb565b9050919050565b7f576974686472617720616d6f756e74206578636565647320746865207769746860008201527f6472617761626c6520616d6f756e740000000000000000000000000000000000602082015250565b6000611b6a602f836117c6565b9150611b7582611b0e565b604082019050919050565b60006020820190508181036000830152611b9981611b5d565b9050919050565b6000604082019050611bb560008301856114e1565b611bc2602083018461176d565b9392505050565b60008115159050919050565b611bde81611bc9565b8114611be957600080fd5b50565b600081519050611bfb81611bd5565b92915050565b600060208284031215611c1757611c166112e7565b5b6000611c2584828501611bec565b91505092915050565b6000608082019050611c43600083018761176d565b611c50602083018661176d565b611c5d604083018561176d565b611c6a606083018461176d565b95945050505050565b6000611c7e826112f1565b9150611c89836112f1565b9250828202611c97816112f1565b91508282048414831517611cae57611cad6118af565b5b5092915050565b6000611cc0826112f1565b9150611ccb836112f1565b9250828201905080821115611ce357611ce26118af565b5b92915050565b6000606082019050611cfe60008301866114e1565b611d0b60208301856114e1565b611d18604083018461176d565b949350505050565b60006fffffffffffffffffffffffffffffffff82169050919050565b6000611d4782611d20565b91506fffffffffffffffffffffffffffffffff8203611d6957611d686118af565b5b600182019050919050565b6000604082019050611d89600083018561176d565b611d96602083018461176d565b939250505056fea2646970667358221220983ea02a838d30680197813dd435ef162e481f8f1f1c22b98a2f4e8217df4b8264736f6c63430008170033",
  "linkReferences": {},
  "deployedLinkReferences": {}
}